8=FIX.4.4|9=63|35=A|34=1|49=VJAPP|52=20240520-22:27:32.774|56=JPM|98=0|108=60|10=109|8=FIX.4.4|9=51|35=0|34=2|49=VJAPP|52=20240520-22:28:33.730|56=JPM|10=056|8=FIX.4.4|9=51|35=0|34=3|49=VJAPP|52=20240520-22:29:33.726|56=JPM|10=063|