8=FIX.4.4|9=63|35=A|34=1|49=JPM|52=20240520-22:27:33.474|56=VJAPP|98=0|108=60|10=107|8=FIX.4.4|9=51|35=0|34=2|49=JPM|52=20240520-22:28:33.740|56=VJAPP|10=057|8=FIX.4.4|9=51|35=0|34=3|49=JPM|52=20240520-22:29:33.736|56=VJAPP|10=064|